{
  "contractName": "WalletManager",
  "abi": [
    {
      "anonymous": false,
      "inputs": [
        {
          "indexed": true,
          "internalType": "address",
          "name": "sender",
          "type": "address"
        },
        {
          "indexed": false,
          "internalType": "uint256",
          "name": "amount",
          "type": "uint256"
        }
      ],
      "name": "Deposit",
      "type": "event"
    },
    {
      "anonymous": false,
      "inputs": [
        {
          "indexed": true,
          "internalType": "address",
          "name": "recipient",
          "type": "address"
        },
        {
          "indexed": false,
          "internalType": "uint256",
          "name": "amount",
          "type": "uint256"
        }
      ],
      "name": "Withdrawal",
      "type": "event"
    },
    {
      "inputs": [
        {
          "internalType": "address",
          "name": "",
          "type": "address"
        }
      ],
      "name": "balances",
      "outputs": [
        {
          "internalType": "uint256",
          "name": "",
          "type": "uint256"
        }
      ],
      "stateMutability": "view",
      "type": "function",
      "constant": true
    },
    {
      "inputs": [],
      "name": "deposit",
      "outputs": [],
      "stateMutability": "payable",
      "type": "function",
      "payable": true
    },
    {
      "inputs": [
        {
          "internalType": "uint256",
          "name": "amount",
          "type": "uint256"
        }
      ],
      "name": "withdraw",
      "outputs": [],
      "stateMutability": "nonpayable",
      "type": "function"
    },
    {
      "inputs": [
        {
          "internalType": "address",
          "name": "_address",
          "type": "address"
        }
      ],
      "name": "getBalance",
      "outputs": [
        {
          "internalType": "uint256",
          "name": "",
          "type": "uint256"
        }
      ],
      "stateMutability": "view",
      "type": "function",
      "constant": true
    }
  ],
  "bytecode": "0x608060405234801561001057600080fd5b506105f1806100206000396000f3fe60806040526004361061005c576000357c01000000000000000000000000000000000000000000000000000000009004806327e235e3146100615780632e1a7d4d1461009e578063d0e30db0146100c7578063f8b2cb4f146100d1575b600080fd5b34801561006d57600080fd5b50610088600480360381019061008391906103ab565b61010e565b604051610095919061046c565b60405180910390f35b3480156100aa57600080fd5b506100c560048036038101906100c091906103d4565b610126565b005b6100cf610294565b005b3480156100dd57600080fd5b506100f860048036038101906100f391906103ab565b610339565b604051610105919061046c565b60405180910390f35b60006020528060005260406000206000915090505481565b806000803373ffffffffffffffffffffffffffffffffffffffff1673ffffffffffffffffffffffffffffffffffffffff1681526020019081526020016000205410156101a7576040517f08c379a000000000000000000000000000000000000000000000000000000000815260040161019e9061044c565b60405180910390fd5b3373ffffffffffffffffffffffffffffffffffffffff166108fc829081150290604051600060405180830381858888f193505050501580156101ed573d6000803e3d6000fd5b50806000803373ffffffffffffffffffffffffffffffffffffffff1673ffffffffffffffffffffffffffffffffffffffff168152602001908152602001600020600082825461023c91906104ee565b925050819055503373ffffffffffffffffffffffffffffffffffffffff167f7fcf532c15f0a6db0bd6d0e038bea71d30d808c7d98cb3bf7268a95bf5081b6582604051610289919061046c565b60405180910390a250565b346000803373ffffffffffffffffffffffffffffffffffffffff1673ffffffffffffffffffffffffffffffffffffffff16815260200190815260200160002060008282546102e29190610498565b925050819055503373ffffffffffffffffffffffffffffffffffffffff167fe1fffcc4923d04b559f4d29a8bfc6cda04eb5b0d3c460751c2402c5c5cc9109c3460405161032f919061046c565b60405180910390a2565b60008060008373ffffffffffffffffffffffffffffffffffffffff1673ffffffffffffffffffffffffffffffffffffffff168152602001908152602001600020549050919050565b6000813590506103908161058d565b92915050565b6000813590506103a5816105a4565b92915050565b6000602082840312156103bd57600080fd5b60006103cb84828501610381565b91505092915050565b6000602082840312156103e657600080fd5b60006103f484828501610396565b91505092915050565b600061040a601483610487565b91507f496e73756666696369656e742062616c616e63650000000000000000000000006000830152602082019050919050565b61044681610554565b82525050565b60006020820190508181036000830152610465816103fd565b9050919050565b6000602082019050610481600083018461043d565b92915050565b600082825260208201905092915050565b60006104a382610554565b91506104ae83610554565b9250827fffffffffffffffffffffffffffffffffffffffffffffffffffffffffffffffff038211156104e3576104e261055e565b5b828201905092915050565b60006104f982610554565b915061050483610554565b9250828210156105175761051661055e565b5b828203905092915050565b600061052d82610534565b9050919050565b600073ffffffffffffffffffffffffffffffffffffffff82169050919050565b6000819050919050565b7f4e487b7100000000000000000000000000000000000000000000000000000000600052601160045260246000fd5b61059681610522565b81146105a157600080fd5b50565b6105ad81610554565b81146105b857600080fd5b5056fea2646970667358221220920298531df80e129a5f209d2f6bb3be2b6ab5264900f1ea7c61c2510a9fdece64736f6c63430008000033",
  "immutableReferences": {},
  "source": "// SPDX-License-Identifier: MIT\npragma solidity ^0.8.0;\n\ncontract WalletManager {\n    mapping(address => uint256) public balances;\n    event Deposit(address indexed sender, uint256 amount);\n    event Withdrawal(address indexed recipient, uint256 amount);\n\n    function deposit() public payable {\n        balances[msg.sender] += msg.value;\n        emit Deposit(msg.sender, msg.value);\n    }\n\n    function withdraw(uint256 amount) public {\n        require(balances[msg.sender] >= amount, \"Insufficient balance\");\n        payable(msg.sender).transfer(amount);\n        balances[msg.sender] -= amount;\n        emit Withdrawal(msg.sender, amount);\n    }\n\n    function getBalance(address _address) public view returns (uint256) {\n        return balances[_address];\n    }\n}",
  "sourcePath": "/home/giakhanh/Educate/blockchain-wallet-app/contracts/WalletManager.sol",
  "compiler": {
    "name": "solc",
    "version": "0.8.0+commit.c7dfd78e.Emscripten.clang"
  },
  "schemaVersion": "3.4.16",
  "updatedAt": "2025-04-27T10:59:58.298Z",
  "networkType": "ethereum",
  "devdoc": {
    "kind": "dev",
    "methods": {},
    "version": 1
  },
  "userdoc": {
    "kind": "user",
    "methods": {},
    "version": 1
  }
}