{
  "contractName": "WalletManager",
  "abi": [
    {
      "inputs": [],
      "stateMutability": "nonpayable",
      "type": "constructor"
    },
    {
      "anonymous": false,
      "inputs": [
        {
          "indexed": true,
          "internalType": "address",
          "name": "sender",
          "type": "address"
        },
        {
          "indexed": false,
          "internalType": "uint256",
          "name": "amount",
          "type": "uint256"
        }
      ],
      "name": "Deposit",
      "type": "event"
    },
    {
      "anonymous": false,
      "inputs": [
        {
          "indexed": true,
          "internalType": "address",
          "name": "from",
          "type": "address"
        },
        {
          "indexed": false,
          "internalType": "uint256",
          "name": "amount",
          "type": "uint256"
        }
      ],
      "name": "FeeCollected",
      "type": "event"
    },
    {
      "anonymous": false,
      "inputs": [
        {
          "indexed": true,
          "internalType": "address",
          "name": "from",
          "type": "address"
        },
        {
          "indexed": true,
          "internalType": "address",
          "name": "to",
          "type": "address"
        },
        {
          "indexed": false,
          "internalType": "uint256",
          "name": "amount",
          "type": "uint256"
        }
      ],
      "name": "Transfer",
      "type": "event"
    },
    {
      "anonymous": false,
      "inputs": [
        {
          "indexed": true,
          "internalType": "address",
          "name": "recipient",
          "type": "address"
        },
        {
          "indexed": false,
          "internalType": "uint256",
          "name": "amount",
          "type": "uint256"
        }
      ],
      "name": "Withdrawal",
      "type": "event"
    },
    {
      "inputs": [],
      "name": "admin",
      "outputs": [
        {
          "internalType": "address",
          "name": "",
          "type": "address"
        }
      ],
      "stateMutability": "view",
      "type": "function",
      "constant": true
    },
    {
      "inputs": [
        {
          "internalType": "address",
          "name": "",
          "type": "address"
        }
      ],
      "name": "balances",
      "outputs": [
        {
          "internalType": "uint256",
          "name": "",
          "type": "uint256"
        }
      ],
      "stateMutability": "view",
      "type": "function",
      "constant": true
    },
    {
      "inputs": [],
      "name": "totalFeesCollected",
      "outputs": [
        {
          "internalType": "uint256",
          "name": "",
          "type": "uint256"
        }
      ],
      "stateMutability": "view",
      "type": "function",
      "constant": true
    },
    {
      "inputs": [],
      "name": "transferFeeRate",
      "outputs": [
        {
          "internalType": "uint256",
          "name": "",
          "type": "uint256"
        }
      ],
      "stateMutability": "view",
      "type": "function",
      "constant": true
    },
    {
      "inputs": [],
      "name": "deposit",
      "outputs": [],
      "stateMutability": "payable",
      "type": "function",
      "payable": true
    },
    {
      "inputs": [
        {
          "internalType": "uint256",
          "name": "amount",
          "type": "uint256"
        }
      ],
      "name": "withdraw",
      "outputs": [],
      "stateMutability": "nonpayable",
      "type": "function"
    },
    {
      "inputs": [
        {
          "internalType": "address",
          "name": "recipient",
          "type": "address"
        },
        {
          "internalType": "uint256",
          "name": "amount",
          "type": "uint256"
        }
      ],
      "name": "transferTo",
      "outputs": [],
      "stateMutability": "nonpayable",
      "type": "function"
    },
    {
      "inputs": [
        {
          "internalType": "address",
          "name": "_address",
          "type": "address"
        }
      ],
      "name": "getBalance",
      "outputs": [
        {
          "internalType": "uint256",
          "name": "",
          "type": "uint256"
        }
      ],
      "stateMutability": "view",
      "type": "function",
      "constant": true
    },
    {
      "inputs": [],
      "name": "withdrawFees",
      "outputs": [],
      "stateMutability": "nonpayable",
      "type": "function"
    }
  ],
  "bytecode": "0x6080604052600160025534801561001557600080fd5b5033600160006101000a81548173ffffffffffffffffffffffffffffffffffffffff021916908373ffffffffffffffffffffffffffffffffffffffff160217905550610f89806100666000396000f3fe6080604052600436106100a3576000357c010000000000000000000000000000000000000000000000000000000090048063476343ee11610076578063476343ee1461016257806360c6d8ae14610179578063d0e30db0146101a4578063f851a440146101ae578063f8b2cb4f146101d9576100a3565b806327e235e3146100a85780632ccb1b30146100e55780632e1a7d4d1461010e578063351bf51814610137575b600080fd5b3480156100b457600080fd5b506100cf60048036038101906100ca91906109d1565b610216565b6040516100dc9190610d4a565b60405180910390f35b3480156100f157600080fd5b5061010c600480360381019061010791906109fa565b61022e565b005b34801561011a57600080fd5b5061013560048036038101906101309190610a36565b610582565b005b34801561014357600080fd5b5061014c610733565b6040516101599190610d4a565b60405180910390f35b34801561016e57600080fd5b50610177610739565b005b34801561018557600080fd5b5061018e61084b565b60405161019b9190610d4a565b60405180910390f35b6101ac610851565b005b3480156101ba57600080fd5b506101c3610939565b6040516101d09190610c6f565b60405180910390f35b3480156101e557600080fd5b5061020060048036038101906101fb91906109d1565b61095f565b60405161020d9190610d4a565b60405180910390f35b60006020528060005260406000206000915090505481565b60008111610271576040517f08c379a000000000000000000000000000000000000000000000000000000000815260040161026890610d0a565b60405180910390fd5b8173ffffffffffffffffffffffffffffffffffffffff163373ffffffffffffffffffffffffffffffffffffffff1614156102e0576040517f08c379a00000000000000000000000000000000000000000000000000000000081526004016102d790610cea565b60405180910390fd5b60006064600254836102f29190610dfd565b6102fc9190610dcc565b90506000818361030c9190610e57565b9050826000803373ffffffffffffffffffffffffffffffffffffffff1673ffffffffffffffffffffffffffffffffffffffff16815260200190815260200160002054101561038f576040517f08c379a000000000000000000000000000000000000000000000000000000000815260040161038690610cca565b60405180910390fd5b826000803373ffffffffffffffffffffffffffffffffffffffff1673ffffffffffffffffffffffffffffffffffffffff16815260200190815260200160002060008282546103dd9190610e57565b92505081905550806000808673ffffffffffffffffffffffffffffffffffffffff1673ffffffffffffffffffffffffffffffffffffffff16815260200190815260200160002060008282546104329190610d76565b9250508190555081600080600160009054906101000a900473ffffffffffffffffffffffffffffffffffffffff1673ffffffffffffffffffffffffffffffffffffffff1673ffffffffffffffffffffffffffffffffffffffff16815260200190815260200160002060008282546104a99190610d76565b9250508190555081600360008282546104c29190610d76565b925050819055503373ffffffffffffffffffffffffffffffffffffffff167f06c5efeff5c320943d265dc4e5f1af95ad523555ce0c1957e367dda5514572df8360405161050f9190610d4a565b60405180910390a28373ffffffffffffffffffffffffffffffffffffffff163373ffffffffffffffffffffffffffffffffffffffff167fddf252ad1be2c89b69c2b068fc378daa952ba7f163c4a11628f55a4df523b3ef836040516105749190610d4a565b60405180910390a350505050565b600081116105c5576040517f08c379a00000000000000000000000000000000000000000000000000000000081526004016105bc90610c8a565b60405180910390fd5b806000803373ffffffffffffffffffffffffffffffffffffffff1673ffffffffffffffffffffffffffffffffffffffff168152602001908152602001600020541015610646576040517f08c379a000000000000000000000000000000000000000000000000000000000815260040161063d90610cca565b60405180910390fd5b806000803373ffffffffffffffffffffffffffffffffffffffff1673ffffffffffffffffffffffffffffffffffffffff16815260200190815260200160002060008282546106949190610e57565b925050819055503373ffffffffffffffffffffffffffffffffffffffff166108fc829081150290604051600060405180830381858888f193505050501580156106e1573d6000803e3d6000fd5b503373ffffffffffffffffffffffffffffffffffffffff167f7fcf532c15f0a6db0bd6d0e038bea71d30d808c7d98cb3bf7268a95bf5081b65826040516107289190610d4a565b60405180910390a250565b60025481565b600160009054906101000a900473ffffffffffffffffffffffffffffffffffffffff1673ffffffffffffffffffffffffffffffffffffffff163373ffffffffffffffffffffffffffffffffffffffff16146107c9576040517f08c379a00000000000000000000000000000000000000000000000000000000081526004016107c090610d2a565b60405180910390fd5b600160009054906101000a900473ffffffffffffffffffffffffffffffffffffffff1673ffffffffffffffffffffffffffffffffffffffff166108fc3073ffffffffffffffffffffffffffffffffffffffff16319081150290604051600060405180830381858888f19350505050158015610848573d6000803e3d6000fd5b50565b60035481565b60003411610894576040517f08c379a000000000000000000000000000000000000000000000000000000000815260040161088b90610caa565b60405180910390fd5b346000803373ffffffffffffffffffffffffffffffffffffffff1673ffffffffffffffffffffffffffffffffffffffff16815260200190815260200160002060008282546108e29190610d76565b925050819055503373ffffffffffffffffffffffffffffffffffffffff167fe1fffcc4923d04b559f4d29a8bfc6cda04eb5b0d3c460751c2402c5c5cc9109c3460405161092f9190610d4a565b60405180910390a2565b600160009054906101000a900473ffffffffffffffffffffffffffffffffffffffff1681565b60008060008373ffffffffffffffffffffffffffffffffffffffff1673ffffffffffffffffffffffffffffffffffffffff168152602001908152602001600020549050919050565b6000813590506109b681610f25565b92915050565b6000813590506109cb81610f3c565b92915050565b6000602082840312156109e357600080fd5b60006109f1848285016109a7565b91505092915050565b60008060408385031215610a0d57600080fd5b6000610a1b858286016109a7565b9250506020610a2c858286016109bc565b9150509250929050565b600060208284031215610a4857600080fd5b6000610a56848285016109bc565b91505092915050565b610a6881610e8b565b82525050565b6000610a7b602683610d65565b91507f576974686472617720616d6f756e74206d75737420626520677265617465722060008301527f7468616e203000000000000000000000000000000000000000000000000000006020830152604082019050919050565b6000610ae1602583610d65565b91507f4465706f73697420616d6f756e74206d7573742062652067726561746572207460008301527f68616e20300000000000000000000000000000000000000000000000000000006020830152604082019050919050565b6000610b47601483610d65565b91507f496e73756666696369656e742062616c616e63650000000000000000000000006000830152602082019050919050565b6000610b87601a83610d65565b91507f43616e2774207472616e7366657220746f20796f757273656c660000000000006000830152602082019050919050565b6000610bc7602683610d65565b91507f5472616e7366657220616d6f756e74206d75737420626520677265617465722060008301527f7468616e203000000000000000000000000000000000000000000000000000006020830152604082019050919050565b6000610c2d601c83610d65565b91507f4f6e6c792061646d696e2063616e2077697468647261772066656573000000006000830152602082019050919050565b610c6981610ebd565b82525050565b6000602082019050610c846000830184610a5f565b92915050565b60006020820190508181036000830152610ca381610a6e565b9050919050565b60006020820190508181036000830152610cc381610ad4565b9050919050565b60006020820190508181036000830152610ce381610b3a565b9050919050565b60006020820190508181036000830152610d0381610b7a565b9050919050565b60006020820190508181036000830152610d2381610bba565b9050919050565b60006020820190508181036000830152610d4381610c20565b9050919050565b6000602082019050610d5f6000830184610c60565b92915050565b600082825260208201905092915050565b6000610d8182610ebd565b9150610d8c83610ebd565b9250827fffffffffffffffffffffffffffffffffffffffffffffffffffffffffffffffff03821115610dc157610dc0610ec7565b5b828201905092915050565b6000610dd782610ebd565b9150610de283610ebd565b925082610df257610df1610ef6565b5b828204905092915050565b6000610e0882610ebd565b9150610e1383610ebd565b9250817fffffffffffffffffffffffffffffffffffffffffffffffffffffffffffffffff0483118215151615610e4c57610e4b610ec7565b5b828202905092915050565b6000610e6282610ebd565b9150610e6d83610ebd565b925082821015610e8057610e7f610ec7565b5b828203905092915050565b6000610e9682610e9d565b9050919050565b600073ffffffffffffffffffffffffffffffffffffffff82169050919050565b6000819050919050565b7f4e487b7100000000000000000000000000000000000000000000000000000000600052601160045260246000fd5b7f4e487b7100000000000000000000000000000000000000000000000000000000600052601260045260246000fd5b610f2e81610e8b565b8114610f3957600080fd5b50565b610f4581610ebd565b8114610f5057600080fd5b5056fea2646970667358221220f1c94faf6ae5c28c9575fafbb84dae92e64f2f8e230966b6696912e6d5477f4f64736f6c63430008000033",
  "immutableReferences": {},
  "source": "// SPDX-License-Identifier: MIT\npragma solidity ^0.8.0;\n\ncontract WalletManager {\n    mapping(address => uint256) public balances;\n\n    address public admin;\n    uint256 public transferFeeRate = 1; // 1%\n    uint256 public totalFeesCollected;\n\n    event Deposit(address indexed sender, uint256 amount);\n    event Withdrawal(address indexed recipient, uint256 amount);\n    event Transfer(address indexed from, address indexed to, uint256 amount);\n    event FeeCollected(address indexed from, uint256 amount);\n\n    constructor() {\n        admin = msg.sender;\n    }\n\n    function deposit() public payable {\n        require(msg.value > 0, \"Deposit amount must be greater than 0\");\n\n        balances[msg.sender] += msg.value;\n        emit Deposit(msg.sender, msg.value);\n    }\n\n    function withdraw(uint256 amount) public {\n        require(amount > 0, \"Withdraw amount must be greater than 0\");\n        require(balances[msg.sender] >= amount, \"Insufficient balance\");\n\n        balances[msg.sender] -= amount;\n        payable(msg.sender).transfer(amount);\n        emit Withdrawal(msg.sender, amount);\n    }\n\n    function transferTo(address recipient, uint256 amount) public {\n        require(amount > 0, \"Transfer amount must be greater than 0\");\n        require(msg.sender != recipient, \"Can't transfer to yourself\");\n\n        uint256 fee = (amount * transferFeeRate) / 100;\n        uint256 netAmount = amount - fee;\n\n        require(balances[msg.sender] >= amount, \"Insufficient balance\");\n\n        balances[msg.sender] -= amount;\n        balances[recipient] += netAmount;\n        balances[admin] += fee;\n\n        totalFeesCollected += fee;\n        emit FeeCollected(msg.sender, fee);\n        emit Transfer(msg.sender, recipient, netAmount);\n    }\n\n    function getBalance(address _address) public view returns (uint256) {\n        return balances[_address];\n    }\n\n    function withdrawFees() external {\n        require(msg.sender == admin, \"Only admin can withdraw fees\");\n        payable(admin).transfer(address(this).balance);\n    }\n}\n",
  "sourcePath": "/home/giakhanh/Educate/Blockchain/test/blockchain_v1/contracts/WalletManager.sol",
  "compiler": {
    "name": "solc",
    "version": "0.8.0+commit.c7dfd78e.Emscripten.clang"
  },
  "schemaVersion": "3.4.16",
  "updatedAt": "2025-05-09T15:59:34.610Z",
  "networkType": "ethereum",
  "devdoc": {
    "kind": "dev",
    "methods": {},
    "version": 1
  },
  "userdoc": {
    "kind": "user",
    "methods": {},
    "version": 1
  }
}