{
  "contractName": "WalletManager",
  "abi": [
    {
      "anonymous": false,
      "inputs": [
        {
          "indexed": true,
          "internalType": "address",
          "name": "sender",
          "type": "address"
        },
        {
          "indexed": false,
          "internalType": "uint256",
          "name": "amount",
          "type": "uint256"
        }
      ],
      "name": "Deposit",
      "type": "event"
    },
    {
      "anonymous": false,
      "inputs": [
        {
          "indexed": true,
          "internalType": "address",
          "name": "recipient",
          "type": "address"
        },
        {
          "indexed": false,
          "internalType": "uint256",
          "name": "amount",
          "type": "uint256"
        }
      ],
      "name": "Withdrawal",
      "type": "event"
    },
    {
      "inputs": [
        {
          "internalType": "address",
          "name": "",
          "type": "address"
        }
      ],
      "name": "balances",
      "outputs": [
        {
          "internalType": "uint256",
          "name": "",
          "type": "uint256"
        }
      ],
      "stateMutability": "view",
      "type": "function",
      "constant": true
    },
    {
      "inputs": [],
      "name": "deposit",
      "outputs": [],
      "stateMutability": "payable",
      "type": "function",
      "payable": true
    },
    {
      "inputs": [
        {
          "internalType": "uint256",
          "name": "amount",
          "type": "uint256"
        }
      ],
      "name": "withdraw",
      "outputs": [],
      "stateMutability": "nonpayable",
      "type": "function"
    },
    {
      "inputs": [
        {
          "internalType": "address",
          "name": "_address",
          "type": "address"
        }
      ],
      "name": "getBalance",
      "outputs": [
        {
          "internalType": "uint256",
          "name": "",
          "type": "uint256"
        }
      ],
      "stateMutability": "view",
      "type": "function",
      "constant": true
    }
  ],
  "bytecode": "0x608060405234801561001057600080fd5b50610783806100206000396000f3fe60806040526004361061005c576000357c01000000000000000000000000000000000000000000000000000000009004806327e235e3146100615780632e1a7d4d1461009e578063d0e30db0146100c7578063f8b2cb4f146100d1575b600080fd5b34801561006d57600080fd5b5061008860048036038101906100839190610431565b61010e565b60405161009591906105fe565b60405180910390f35b3480156100aa57600080fd5b506100c560048036038101906100c0919061045a565b610126565b005b6100cf6102d7565b005b3480156100dd57600080fd5b506100f860048036038101906100f39190610431565b6103bf565b60405161010591906105fe565b60405180910390f35b60006020528060005260406000206000915090505481565b60008111610169576040517f08c379a00000000000000000000000000000000000000000000000000000000081526004016101609061059e565b60405180910390fd5b806000803373ffffffffffffffffffffffffffffffffffffffff1673ffffffffffffffffffffffffffffffffffffffff1681526020019081526020016000205410156101ea576040517f08c379a00000000000000000000000000000000000000000000000000000000081526004016101e1906105de565b60405180910390fd5b3373ffffffffffffffffffffffffffffffffffffffff166108fc829081150290604051600060405180830381858888f19350505050158015610230573d6000803e3d6000fd5b50806000803373ffffffffffffffffffffffffffffffffffffffff1673ffffffffffffffffffffffffffffffffffffffff168152602001908152602001600020600082825461027f9190610680565b925050819055503373ffffffffffffffffffffffffffffffffffffffff167f7fcf532c15f0a6db0bd6d0e038bea71d30d808c7d98cb3bf7268a95bf5081b65826040516102cc91906105fe565b60405180910390a250565b6000341161031a576040517f08c379a0000000000000000000000000000000000000000000000000000000008152600401610311906105be565b60405180910390fd5b346000803373ffffffffffffffffffffffffffffffffffffffff1673ffffffffffffffffffffffffffffffffffffffff1681526020019081526020016000206000828254610368919061062a565b925050819055503373ffffffffffffffffffffffffffffffffffffffff167fe1fffcc4923d04b559f4d29a8bfc6cda04eb5b0d3c460751c2402c5c5cc9109c346040516103b591906105fe565b60405180910390a2565b60008060008373ffffffffffffffffffffffffffffffffffffffff1673ffffffffffffffffffffffffffffffffffffffff168152602001908152602001600020549050919050565b6000813590506104168161071f565b92915050565b60008135905061042b81610736565b92915050565b60006020828403121561044357600080fd5b600061045184828501610407565b91505092915050565b60006020828403121561046c57600080fd5b600061047a8482850161041c565b91505092915050565b6000610490602683610619565b91507f576974686472617720616d6f756e74206d75737420626520677265617465722060008301527f7468616e203000000000000000000000000000000000000000000000000000006020830152604082019050919050565b60006104f6602583610619565b91507f4465706f73697420616d6f756e74206d7573742062652067726561746572207460008301527f68616e20300000000000000000000000000000000000000000000000000000006020830152604082019050919050565b600061055c601483610619565b91507f496e73756666696369656e742062616c616e63650000000000000000000000006000830152602082019050919050565b610598816106e6565b82525050565b600060208201905081810360008301526105b781610483565b9050919050565b600060208201905081810360008301526105d7816104e9565b9050919050565b600060208201905081810360008301526105f78161054f565b9050919050565b6000602082019050610613600083018461058f565b92915050565b600082825260208201905092915050565b6000610635826106e6565b9150610640836106e6565b9250827fffffffffffffffffffffffffffffffffffffffffffffffffffffffffffffffff03821115610675576106746106f0565b5b828201905092915050565b600061068b826106e6565b9150610696836106e6565b9250828210156106a9576106a86106f0565b5b828203905092915050565b60006106bf826106c6565b9050919050565b600073ffffffffffffffffffffffffffffffffffffffff82169050919050565b6000819050919050565b7f4e487b7100000000000000000000000000000000000000000000000000000000600052601160045260246000fd5b610728816106b4565b811461073357600080fd5b50565b61073f816106e6565b811461074a57600080fd5b5056fea264697066735822122031fcb7781d0f5314b761819df740a33953fcad247c49de81d018121fedf07e9764736f6c63430008000033",
  "immutableReferences": {},
  "source": "// SPDX-License-Identifier: MIT\npragma solidity ^0.8.0;\n\ncontract WalletManager {\n    mapping(address => uint256) public balances;\n    event Deposit(address indexed sender, uint256 amount);\n    event Withdrawal(address indexed recipient, uint256 amount);\n\n    function deposit() public payable {\n        require(msg.value > 0, \"Deposit amount must be greater than 0\");\n        balances[msg.sender] += msg.value;\n        emit Deposit(msg.sender, msg.value);\n    }\n\n    function withdraw(uint256 amount) public {\n        require(amount > 0, \"Withdraw amount must be greater than 0\");\n        require(balances[msg.sender] >= amount, \"Insufficient balance\");\n        payable(msg.sender).transfer(amount);\n        balances[msg.sender] -= amount;\n        emit Withdrawal(msg.sender, amount);\n    }\n\n    function getBalance(address _address) public view returns (uint256) {\n        return balances[_address];\n    }\n}",
  "sourcePath": "/home/giakhanh/Educate/blockchain-wallet-app/contracts/WalletManager.sol",
  "compiler": {
    "name": "solc",
    "version": "0.8.0+commit.c7dfd78e.Emscripten.clang"
  },
  "schemaVersion": "3.4.16",
  "updatedAt": "2025-04-28T15:40:26.558Z",
  "networkType": "ethereum",
  "devdoc": {
    "kind": "dev",
    "methods": {},
    "version": 1
  },
  "userdoc": {
    "kind": "user",
    "methods": {},
    "version": 1
  }
}